{
  "_format": "hh-sol-artifact-1",
  "contractName": "SubmissionStorage",
  "sourceName": "contracts/SubmissionStorage.sol",
  "abi": [
    {
      "anonymous": false,
      "inputs": [
        {
          "indexed": true,
          "internalType": "string",
          "name": "studentId",
          "type": "string"
        },
        {
          "indexed": false,
          "internalType": "string",
          "name": "assignmentId",
          "type": "string"
        },
        {
          "indexed": false,
          "internalType": "string",
          "name": "contentHash",
          "type": "string"
        },
        {
          "indexed": false,
          "internalType": "uint256",
          "name": "timestamp",
          "type": "uint256"
        }
      ],
      "name": "SubmissionStored",
      "type": "event"
    },
    {
      "inputs": [
        {
          "internalType": "string",
          "name": "studentId",
          "type": "string"
        },
        {
          "internalType": "uint256",
          "name": "index",
          "type": "uint256"
        }
      ],
      "name": "getSubmission",
      "outputs": [
        {
          "internalType": "string",
          "name": "assignmentId",
          "type": "string"
        },
        {
          "internalType": "string",
          "name": "contentHash",
          "type": "string"
        },
        {
          "internalType": "uint256",
          "name": "timestamp",
          "type": "uint256"
        }
      ],
      "stateMutability": "view",
      "type": "function"
    },
    {
      "inputs": [
        {
          "internalType": "string",
          "name": "studentId",
          "type": "string"
        }
      ],
      "name": "getSubmissionCount",
      "outputs": [
        {
          "internalType": "uint256",
          "name": "",
          "type": "uint256"
        }
      ],
      "stateMutability": "view",
      "type": "function"
    },
    {
      "inputs": [
        {
          "internalType": "string",
          "name": "studentId",
          "type": "string"
        }
      ],
      "name": "getSubmissions",
      "outputs": [
        {
          "components": [
            {
              "internalType": "string",
              "name": "assignmentId",
              "type": "string"
            },
            {
              "internalType": "string",
              "name": "contentHash",
              "type": "string"
            },
            {
              "internalType": "uint256",
              "name": "timestamp",
              "type": "uint256"
            }
          ],
          "internalType": "struct SubmissionStorage.Submission[]",
          "name": "",
          "type": "tuple[]"
        }
      ],
      "stateMutability": "view",
      "type": "function"
    },
    {
      "inputs": [
        {
          "internalType": "string",
          "name": "studentId",
          "type": "string"
        },
        {
          "internalType": "string",
          "name": "assignmentId",
          "type": "string"
        },
        {
          "internalType": "string",
          "name": "contentHash",
          "type": "string"
        }
      ],
      "name": "storeSubmission",
      "outputs": [],
      "stateMutability": "nonpayable",
      "type": "function"
    },
    {
      "inputs": [
        {
          "internalType": "string",
          "name": "studentId",
          "type": "string"
        },
        {
          "internalType": "string",
          "name": "assignmentId",
          "type": "string"
        },
        {
          "internalType": "string",
          "name": "contentHash",
          "type": "string"
        }
      ],
      "name": "verifySubmission",
      "outputs": [
        {
          "internalType": "bool",
          "name": "",
          "type": "bool"
        }
      ],
      "stateMutability": "view",
      "type": "function"
    }
  ],
  "bytecode": "0x608060405234801561001057600080fd5b506112d4806100206000396000f3fe608060405234801561001057600080fd5b50600436106100555760003560e01c80623a6f9c1461005a5780628100481461008a57806314ff136c146100bc578063210cc2aa146100ec5780635fc0f81114610108575b600080fd5b610074600480360381019061006f9190610a21565b610138565b6040516100819190610ae3565b60405180910390f35b6100a4600480360381019061009f9190610b34565b6103fe565b6040516100b393929190610c1e565b60405180910390f35b6100d660048036038101906100d19190610c63565b6105fc565b6040516100e39190610e1e565b60405180910390f35b61010660048036038101906101019190610a21565b6107a7565b005b610122600480360381019061011d9190610c63565b61089d565b60405161012f9190610e40565b60405180910390f35b60008060008560405161014b9190610e97565b9081526020016040518091039020805480602002602001604051908101604052809291908181526020016000905b828210156102d957838290600052602060002090600302016040518060600160405290816000820180546101ac90610edd565b80601f01602080910402602001604051908101604052809291908181526020018280546101d890610edd565b80156102255780601f106101fa57610100808354040283529160200191610225565b820191906000526020600020905b81548152906001019060200180831161020857829003601f168201915b5050505050815260200160018201805461023e90610edd565b80601f016020809104026020016040519081016040528092919081815260200182805461026a90610edd565b80156102b75780601f1061028c576101008083540402835291602001916102b7565b820191906000526020600020905b81548152906001019060200180831161029a57829003601f168201915b5050505050815260200160028201548152505081526020019060010190610179565b50505050905060005b81518110156103f057846040516020016102fc9190610e97565b6040516020818303038152906040528051906020012082828151811061032557610324610f0e565b5b6020026020010151600001516040516020016103419190610e97565b604051602081830303815290604052805190602001201480156103cd5750836040516020016103709190610e97565b6040516020818303038152906040528051906020012082828151811061039957610398610f0e565b5b6020026020010151602001516040516020016103b59190610e97565b60405160208183030381529060405280519060200120145b156103dd576001925050506103f7565b80806103e890610f6c565b9150506102e2565b5060009150505b9392505050565b606080600080856040516104129190610e97565b9081526020016040518091039020805490508410610465576040517f08c379a000000000000000000000000000000000000000000000000000000000815260040161045c90611000565b60405180910390fd5b600080866040516104769190610e97565b9081526020016040518091039020858154811061049657610495610f0e565b5b90600052602060002090600302016040518060600160405290816000820180546104bf90610edd565b80601f01602080910402602001604051908101604052809291908181526020018280546104eb90610edd565b80156105385780601f1061050d57610100808354040283529160200191610538565b820191906000526020600020905b81548152906001019060200180831161051b57829003601f168201915b5050505050815260200160018201805461055190610edd565b80601f016020809104026020016040519081016040528092919081815260200182805461057d90610edd565b80156105ca5780601f1061059f576101008083540402835291602001916105ca565b820191906000526020600020905b8154815290600101906020018083116105ad57829003601f168201915b505050505081526020016002820154815250509050806000015181602001518260400151935093509350509250925092565b606060008260405161060e9190610e97565b9081526020016040518091039020805480602002602001604051908101604052809291908181526020016000905b8282101561079c578382906000526020600020906003020160405180606001604052908160008201805461066f90610edd565b80601f016020809104026020016040519081016040528092919081815260200182805461069b90610edd565b80156106e85780601f106106bd576101008083540402835291602001916106e8565b820191906000526020600020905b8154815290600101906020018083116106cb57829003601f168201915b5050505050815260200160018201805461070190610edd565b80601f016020809104026020016040519081016040528092919081815260200182805461072d90610edd565b801561077a5780601f1061074f5761010080835404028352916020019161077a565b820191906000526020600020905b81548152906001019060200180831161075d57829003601f168201915b505050505081526020016002820154815250508152602001906001019061063c565b505050509050919050565b600060405180606001604052808481526020018381526020014281525090506000846040516107d69190610e97565b9081526020016040518091039020819080600181540180825580915050600190039060005260206000209060030201600090919091909150600082015181600001908161082391906111cc565b50602082015181600101908161083991906111cc565b50604082015181600201555050836040516108549190610e97565b60405180910390207f64935225ddacaf9c1d3074b1a2703de70a5d2a247309037c52adc2610dafd5a884844260405161088f93929190610c1e565b60405180910390a250505050565b600080826040516108ae9190610e97565b9081526020016040518091039020805490509050919050565b6000604051905090565b600080fd5b600080fd5b600080fd5b600080fd5b6000601f19601f8301169050919050565b7f4e487b7100000000000000000000000000000000000000000000000000000000600052604160045260246000fd5b61092e826108e5565b810181811067ffffffffffffffff8211171561094d5761094c6108f6565b5b80604052505050565b60006109606108c7565b905061096c8282610925565b919050565b600067ffffffffffffffff82111561098c5761098b6108f6565b5b610995826108e5565b9050602081019050919050565b82818337600083830152505050565b60006109c46109bf84610971565b610956565b9050828152602081018484840111156109e0576109df6108e0565b5b6109eb8482856109a2565b509392505050565b600082601f830112610a0857610a076108db565b5b8135610a188482602086016109b1565b91505092915050565b600080600060608486031215610a3a57610a396108d1565b5b600084013567ffffffffffffffff811115610a5857610a576108d6565b5b610a64868287016109f3565b935050602084013567ffffffffffffffff811115610a8557610a846108d6565b5b610a91868287016109f3565b925050604084013567ffffffffffffffff811115610ab257610ab16108d6565b5b610abe868287016109f3565b9150509250925092565b60008115159050919050565b610add81610ac8565b82525050565b6000602082019050610af86000830184610ad4565b92915050565b6000819050919050565b610b1181610afe565b8114610b1c57600080fd5b50565b600081359050610b2e81610b08565b92915050565b60008060408385031215610b4b57610b4a6108d1565b5b600083013567ffffffffffffffff811115610b6957610b686108d6565b5b610b75858286016109f3565b9250506020610b8685828601610b1f565b9150509250929050565b600081519050919050565b600082825260208201905092915050565b60005b83811015610bca578082015181840152602081019050610baf565b60008484015250505050565b6000610be182610b90565b610beb8185610b9b565b9350610bfb818560208601610bac565b610c04816108e5565b840191505092915050565b610c1881610afe565b82525050565b60006060820190508181036000830152610c388186610bd6565b90508181036020830152610c4c8185610bd6565b9050610c5b6040830184610c0f565b949350505050565b600060208284031215610c7957610c786108d1565b5b600082013567ffffffffffffffff811115610c9757610c966108d6565b5b610ca3848285016109f3565b91505092915050565b600081519050919050565b600082825260208201905092915050565b6000819050602082019050919050565b600082825260208201905092915050565b6000610cf482610b90565b610cfe8185610cd8565b9350610d0e818560208601610bac565b610d17816108e5565b840191505092915050565b610d2b81610afe565b82525050565b60006060830160008301518482036000860152610d4e8282610ce9565b91505060208301518482036020860152610d688282610ce9565b9150506040830151610d7d6040860182610d22565b508091505092915050565b6000610d948383610d31565b905092915050565b6000602082019050919050565b6000610db482610cac565b610dbe8185610cb7565b935083602082028501610dd085610cc8565b8060005b85811015610e0c5784840389528151610ded8582610d88565b9450610df883610d9c565b925060208a01995050600181019050610dd4565b50829750879550505050505092915050565b60006020820190508181036000830152610e388184610da9565b905092915050565b6000602082019050610e556000830184610c0f565b92915050565b600081905092915050565b6000610e7182610b90565b610e7b8185610e5b565b9350610e8b818560208601610bac565b80840191505092915050565b6000610ea38284610e66565b915081905092915050565b7f4e487b7100000000000000000000000000000000000000000000000000000000600052602260045260246000fd5b60006002820490506001821680610ef557607f821691505b602082108103610f0857610f07610eae565b5b50919050565b7f4e487b7100000000000000000000000000000000000000000000000000000000600052603260045260246000fd5b7f4e487b7100000000000000000000000000000000000000000000000000000000600052601160045260246000fd5b6000610f7782610afe565b91507fffffffffffffffffffffffffffffffffffffffffffffffffffffffffffffffff8203610fa957610fa8610f3d565b5b600182019050919050565b7f496e76616c696420696e64657800000000000000000000000000000000000000600082015250565b6000610fea600d83610b9b565b9150610ff582610fb4565b602082019050919050565b6000602082019050818103600083015261101981610fdd565b9050919050565b60008190508160005260206000209050919050565b60006020601f8301049050919050565b600082821b905092915050565b6000600883026110827fffffffffffffffffffffffffffffffffffffffffffffffffffffffffffffffff82611045565b61108c8683611045565b95508019841693508086168417925050509392505050565b6000819050919050565b60006110c96110c46110bf84610afe565b6110a4565b610afe565b9050919050565b6000819050919050565b6110e3836110ae565b6110f76110ef826110d0565b848454611052565b825550505050565b600090565b61110c6110ff565b6111178184846110da565b505050565b5b8181101561113b57611130600082611104565b60018101905061111d565b5050565b601f8211156111805761115181611020565b61115a84611035565b81016020851015611169578190505b61117d61117585611035565b83018261111c565b50505b505050565b600082821c905092915050565b60006111a360001984600802611185565b1980831691505092915050565b60006111bc8383611192565b9150826002028217905092915050565b6111d582610b90565b67ffffffffffffffff8111156111ee576111ed6108f6565b5b6111f88254610edd565b61120382828561113f565b600060209050601f8311600181146112365760008415611224578287015190505b61122e85826111b0565b865550611296565b601f19841661124486611020565b60005b8281101561126c57848901518255600182019150602085019450602081019050611247565b868310156112895784890151611285601f891682611192565b8355505b6001600288020188555050505b50505050505056fea2646970667358221220346fb35f7bb839f503df5299d2f6b39f9d295c5962bec48a63eecb778799654d64736f6c63430008140033",
  "linkReferences": {},
  "deployedLinkReferences": {}
}