{
  "_format": "hh-sol-artifact-1",
  "contractName": "SubmissionStorage",
  "sourceName": "contracts/SubmissionStorage.sol",
  "abi": [
    {
      "anonymous": false,
      "inputs": [
        {
          "indexed": true,
          "internalType": "string",
          "name": "studentId",
          "type": "string"
        },
        {
          "indexed": false,
          "internalType": "string",
          "name": "assignmentId",
          "type": "string"
        },
        {
          "indexed": false,
          "internalType": "string",
          "name": "contentHash",
          "type": "string"
        },
        {
          "indexed": false,
          "internalType": "uint256",
          "name": "timestamp",
          "type": "uint256"
        }
      ],
      "name": "SubmissionStored",
      "type": "event"
    },
    {
      "inputs": [
        {
          "internalType": "string",
          "name": "studentId",
          "type": "string"
        },
        {
          "internalType": "uint256",
          "name": "index",
          "type": "uint256"
        }
      ],
      "name": "getSubmission",
      "outputs": [
        {
          "internalType": "string",
          "name": "assignmentId",
          "type": "string"
        },
        {
          "internalType": "string",
          "name": "contentHash",
          "type": "string"
        },
        {
          "internalType": "uint256",
          "name": "timestamp",
          "type": "uint256"
        }
      ],
      "stateMutability": "view",
      "type": "function"
    },
    {
      "inputs": [
        {
          "internalType": "string",
          "name": "studentId",
          "type": "string"
        }
      ],
      "name": "getSubmissionCount",
      "outputs": [
        {
          "internalType": "uint256",
          "name": "",
          "type": "uint256"
        }
      ],
      "stateMutability": "view",
      "type": "function"
    },
    {
      "inputs": [
        {
          "internalType": "string",
          "name": "studentId",
          "type": "string"
        }
      ],
      "name": "getSubmissions",
      "outputs": [
        {
          "components": [
            {
              "internalType": "string",
              "name": "assignmentId",
              "type": "string"
            },
            {
              "internalType": "string",
              "name": "contentHash",
              "type": "string"
            },
            {
              "internalType": "uint256",
              "name": "timestamp",
              "type": "uint256"
            }
          ],
          "internalType": "struct SubmissionStorage.Submission[]",
          "name": "",
          "type": "tuple[]"
        }
      ],
      "stateMutability": "view",
      "type": "function"
    },
    {
      "inputs": [
        {
          "internalType": "string",
          "name": "studentId",
          "type": "string"
        },
        {
          "internalType": "string",
          "name": "assignmentId",
          "type": "string"
        },
        {
          "internalType": "string",
          "name": "contentHash",
          "type": "string"
        }
      ],
      "name": "storeSubmission",
      "outputs": [],
      "stateMutability": "nonpayable",
      "type": "function"
    },
    {
      "inputs": [
        {
          "internalType": "string",
          "name": "studentId",
          "type": "string"
        },
        {
          "internalType": "string",
          "name": "assignmentId",
          "type": "string"
        },
        {
          "internalType": "string",
          "name": "contentHash",
          "type": "string"
        }
      ],
      "name": "verifySubmission",
      "outputs": [
        {
          "internalType": "bool",
          "name": "",
          "type": "bool"
        },
        {
          "internalType": "string",
          "name": "",
          "type": "string"
        },
        {
          "internalType": "string",
          "name": "",
          "type": "string"
        },
        {
          "internalType": "string",
          "name": "",
          "type": "string"
        }
      ],
      "stateMutability": "view",
      "type": "function"
    }
  ],
  "bytecode": "0x608060405234801561001057600080fd5b5061143c806100206000396000f3fe608060405234801561001057600080fd5b50600436106100555760003560e01c80623a6f9c1461005a5780628100481461008d57806314ff136c146100bf578063210cc2aa146100ef5780635fc0f8111461010b575b600080fd5b610074600480360381019061006f9190610b29565b61013b565b6040516100849493929190610c6a565b60405180910390f35b6100a760048036038101906100a29190610cfa565b610506565b6040516100b693929190610d65565b60405180910390f35b6100d960048036038101906100d49190610daa565b610704565b6040516100e69190610f65565b60405180910390f35b61010960048036038101906101049190610b29565b6108af565b005b61012560048036038101906101209190610daa565b6109a5565b6040516101329190610f87565b60405180910390f35b60006060806060600080886040516101539190610fde565b9081526020016040518091039020805480602002602001604051908101604052809291908181526020016000905b828210156102e157838290600052602060002090600302016040518060600160405290816000820180546101b490611024565b80601f01602080910402602001604051908101604052809291908181526020018280546101e090611024565b801561022d5780601f106102025761010080835404028352916020019161022d565b820191906000526020600020905b81548152906001019060200180831161021057829003601f168201915b5050505050815260200160018201805461024690611024565b80601f016020809104026020016040519081016040528092919081815260200182805461027290611024565b80156102bf5780601f10610294576101008083540402835291602001916102bf565b820191906000526020600020905b8154815290600101906020018083116102a257829003601f168201915b5050505050815260200160028201548152505081526020019060010190610181565b505050509050600081510361032b576000886040518060600160405280602181526020016113e66021913990604051806020016040528060008152509450945094509450506104fd565b60005b81518110156104b657876040516020016103489190610fde565b6040516020818303038152906040528051906020012082828151811061037157610370611055565b5b60200260200101516000015160405160200161038d9190610fde565b604051602081830303815290604052805190602001201480156104195750866040516020016103bc9190610fde565b604051602081830303815290604052805190602001208282815181106103e5576103e4611055565b5b6020026020010151602001516040516020016104019190610fde565b60405160208183030381529060405280519060200120145b156104a357600182828151811061043357610432611055565b5b60200260200101516000015183838151811061045257610451611055565b5b6020026020010151602001516040518060400160405280600581526020017f4d41544348000000000000000000000000000000000000000000000000000000815250955095509550955050506104fd565b80806104ae906110b3565b91505061032e565b50600087876040518060400160405280601e81526020017f466f756e64207375626d697373696f6e7320627574206d69736d61746368000081525091909450945094509450505b93509350935093565b6060806000808560405161051a9190610fde565b908152602001604051809103902080549050841061056d576040517f08c379a000000000000000000000000000000000000000000000000000000000815260040161056490611147565b60405180910390fd5b6000808660405161057e9190610fde565b9081526020016040518091039020858154811061059e5761059d611055565b5b90600052602060002090600302016040518060600160405290816000820180546105c790611024565b80601f01602080910402602001604051908101604052809291908181526020018280546105f390611024565b80156106405780601f1061061557610100808354040283529160200191610640565b820191906000526020600020905b81548152906001019060200180831161062357829003601f168201915b5050505050815260200160018201805461065990611024565b80601f016020809104026020016040519081016040528092919081815260200182805461068590611024565b80156106d25780601f106106a7576101008083540402835291602001916106d2565b820191906000526020600020905b8154815290600101906020018083116106b557829003601f168201915b505050505081526020016002820154815250509050806000015181602001518260400151935093509350509250925092565b60606000826040516107169190610fde565b9081526020016040518091039020805480602002602001604051908101604052809291908181526020016000905b828210156108a4578382906000526020600020906003020160405180606001604052908160008201805461077790611024565b80601f01602080910402602001604051908101604052809291908181526020018280546107a390611024565b80156107f05780601f106107c5576101008083540402835291602001916107f0565b820191906000526020600020905b8154815290600101906020018083116107d357829003601f168201915b5050505050815260200160018201805461080990611024565b80601f016020809104026020016040519081016040528092919081815260200182805461083590611024565b80156108825780601f1061085757610100808354040283529160200191610882565b820191906000526020600020905b81548152906001019060200180831161086557829003601f168201915b5050505050815260200160028201548152505081526020019060010190610744565b505050509050919050565b600060405180606001604052808481526020018381526020014281525090506000846040516108de9190610fde565b9081526020016040518091039020819080600181540180825580915050600190039060005260206000209060030201600090919091909150600082015181600001908161092b9190611313565b5060208201518160010190816109419190611313565b506040820151816002015550508360405161095c9190610fde565b60405180910390207f64935225ddacaf9c1d3074b1a2703de70a5d2a247309037c52adc2610dafd5a884844260405161099793929190610d65565b60405180910390a250505050565b600080826040516109b69190610fde565b9081526020016040518091039020805490509050919050565b6000604051905090565b600080fd5b600080fd5b600080fd5b600080fd5b6000601f19601f8301169050919050565b7f4e487b7100000000000000000000000000000000000000000000000000000000600052604160045260246000fd5b610a36826109ed565b810181811067ffffffffffffffff82111715610a5557610a546109fe565b5b80604052505050565b6000610a686109cf565b9050610a748282610a2d565b919050565b600067ffffffffffffffff821115610a9457610a936109fe565b5b610a9d826109ed565b9050602081019050919050565b82818337600083830152505050565b6000610acc610ac784610a79565b610a5e565b905082815260208101848484011115610ae857610ae76109e8565b5b610af3848285610aaa565b509392505050565b600082601f830112610b1057610b0f6109e3565b5b8135610b20848260208601610ab9565b91505092915050565b600080600060608486031215610b4257610b416109d9565b5b600084013567ffffffffffffffff811115610b6057610b5f6109de565b5b610b6c86828701610afb565b935050602084013567ffffffffffffffff811115610b8d57610b8c6109de565b5b610b9986828701610afb565b925050604084013567ffffffffffffffff811115610bba57610bb96109de565b5b610bc686828701610afb565b9150509250925092565b60008115159050919050565b610be581610bd0565b82525050565b600081519050919050565b600082825260208201905092915050565b60005b83811015610c25578082015181840152602081019050610c0a565b60008484015250505050565b6000610c3c82610beb565b610c468185610bf6565b9350610c56818560208601610c07565b610c5f816109ed565b840191505092915050565b6000608082019050610c7f6000830187610bdc565b8181036020830152610c918186610c31565b90508181036040830152610ca58185610c31565b90508181036060830152610cb98184610c31565b905095945050505050565b6000819050919050565b610cd781610cc4565b8114610ce257600080fd5b50565b600081359050610cf481610cce565b92915050565b60008060408385031215610d1157610d106109d9565b5b600083013567ffffffffffffffff811115610d2f57610d2e6109de565b5b610d3b85828601610afb565b9250506020610d4c85828601610ce5565b9150509250929050565b610d5f81610cc4565b82525050565b60006060820190508181036000830152610d7f8186610c31565b90508181036020830152610d938185610c31565b9050610da26040830184610d56565b949350505050565b600060208284031215610dc057610dbf6109d9565b5b600082013567ffffffffffffffff811115610dde57610ddd6109de565b5b610dea84828501610afb565b91505092915050565b600081519050919050565b600082825260208201905092915050565b6000819050602082019050919050565b600082825260208201905092915050565b6000610e3b82610beb565b610e458185610e1f565b9350610e55818560208601610c07565b610e5e816109ed565b840191505092915050565b610e7281610cc4565b82525050565b60006060830160008301518482036000860152610e958282610e30565b91505060208301518482036020860152610eaf8282610e30565b9150506040830151610ec46040860182610e69565b508091505092915050565b6000610edb8383610e78565b905092915050565b6000602082019050919050565b6000610efb82610df3565b610f058185610dfe565b935083602082028501610f1785610e0f565b8060005b85811015610f535784840389528151610f348582610ecf565b9450610f3f83610ee3565b925060208a01995050600181019050610f1b565b50829750879550505050505092915050565b60006020820190508181036000830152610f7f8184610ef0565b905092915050565b6000602082019050610f9c6000830184610d56565b92915050565b600081905092915050565b6000610fb882610beb565b610fc28185610fa2565b9350610fd2818560208601610c07565b80840191505092915050565b6000610fea8284610fad565b915081905092915050565b7f4e487b7100000000000000000000000000000000000000000000000000000000600052602260045260246000fd5b6000600282049050600182168061103c57607f821691505b60208210810361104f5761104e610ff5565b5b50919050565b7f4e487b7100000000000000000000000000000000000000000000000000000000600052603260045260246000fd5b7f4e487b7100000000000000000000000000000000000000000000000000000000600052601160045260246000fd5b60006110be82610cc4565b91507fffffffffffffffffffffffffffffffffffffffffffffffffffffffffffffffff82036110f0576110ef611084565b5b600182019050919050565b7f496e76616c696420696e64657800000000000000000000000000000000000000600082015250565b6000611131600d83610bf6565b915061113c826110fb565b602082019050919050565b6000602082019050818103600083015261116081611124565b9050919050565b60008190508160005260206000209050919050565b60006020601f8301049050919050565b600082821b905092915050565b6000600883026111c97fffffffffffffffffffffffffffffffffffffffffffffffffffffffffffffffff8261118c565b6111d3868361118c565b95508019841693508086168417925050509392505050565b6000819050919050565b600061121061120b61120684610cc4565b6111eb565b610cc4565b9050919050565b6000819050919050565b61122a836111f5565b61123e61123682611217565b848454611199565b825550505050565b600090565b611253611246565b61125e818484611221565b505050565b5b818110156112825761127760008261124b565b600181019050611264565b5050565b601f8211156112c75761129881611167565b6112a18461117c565b810160208510156112b0578190505b6112c46112bc8561117c565b830182611263565b50505b505050565b600082821c905092915050565b60006112ea600019846008026112cc565b1980831691505092915050565b600061130383836112d9565b9150826002028217905092915050565b61131c82610beb565b67ffffffffffffffff811115611335576113346109fe565b5b61133f8254611024565b61134a828285611286565b600060209050601f83116001811461137d576000841561136b578287015190505b61137585826112f7565b8655506113dd565b601f19841661138b86611167565b60005b828110156113b35784890151825560018201915060208501945060208101905061138e565b868310156113d057848901516113cc601f8916826112d9565b8355505b6001600288020188555050505b50505050505056fe4e6f207375626d697373696f6e20666f756e6420666f722073747564656e744964a2646970667358221220e10bbd446d2afce45f6ac3ddddacca78a55e8bc5ab94ec321cefec3602f245df64736f6c63430008140033",
  "linkReferences": {},
  "deployedLinkReferences": {}
}