{
  "_format": "hh-sol-artifact-1",
  "contractName": "SubmissionStorage",
  "sourceName": "contracts/SubmissionStorage.sol",
  "abi": [
    {
      "anonymous": false,
      "inputs": [
        {
          "indexed": true,
          "internalType": "address",
          "name": "student",
          "type": "address"
        },
        {
          "indexed": false,
          "internalType": "string",
          "name": "assignmentId",
          "type": "string"
        },
        {
          "indexed": false,
          "internalType": "string",
          "name": "hash",
          "type": "string"
        },
        {
          "indexed": false,
          "internalType": "uint256",
          "name": "timestamp",
          "type": "uint256"
        }
      ],
      "name": "SubmissionStored",
      "type": "event"
    },
    {
      "inputs": [
        {
          "internalType": "address",
          "name": "student",
          "type": "address"
        },
        {
          "internalType": "string",
          "name": "assignmentId",
          "type": "string"
        },
        {
          "internalType": "uint256",
          "name": "index",
          "type": "uint256"
        }
      ],
      "name": "getSubmission",
      "outputs": [
        {
          "internalType": "string",
          "name": "",
          "type": "string"
        },
        {
          "internalType": "uint256",
          "name": "",
          "type": "uint256"
        }
      ],
      "stateMutability": "view",
      "type": "function"
    },
    {
      "inputs": [
        {
          "internalType": "address",
          "name": "student",
          "type": "address"
        },
        {
          "internalType": "string",
          "name": "assignmentId",
          "type": "string"
        }
      ],
      "name": "getSubmissionCount",
      "outputs": [
        {
          "internalType": "uint256",
          "name": "",
          "type": "uint256"
        }
      ],
      "stateMutability": "view",
      "type": "function"
    },
    {
      "inputs": [
        {
          "internalType": "address",
          "name": "student",
          "type": "address"
        },
        {
          "internalType": "string",
          "name": "assignmentId",
          "type": "string"
        }
      ],
      "name": "getSubmissions",
      "outputs": [
        {
          "components": [
            {
              "internalType": "string",
              "name": "hash",
              "type": "string"
            },
            {
              "internalType": "uint256",
              "name": "timestamp",
              "type": "uint256"
            }
          ],
          "internalType": "struct SubmissionStorage.Submission[]",
          "name": "",
          "type": "tuple[]"
        }
      ],
      "stateMutability": "view",
      "type": "function"
    },
    {
      "inputs": [
        {
          "internalType": "string",
          "name": "assignmentId",
          "type": "string"
        },
        {
          "internalType": "string",
          "name": "hash",
          "type": "string"
        }
      ],
      "name": "storeSubmission",
      "outputs": [],
      "stateMutability": "nonpayable",
      "type": "function"
    },
    {
      "inputs": [
        {
          "internalType": "address",
          "name": "student",
          "type": "address"
        },
        {
          "internalType": "string",
          "name": "assignmentId",
          "type": "string"
        },
        {
          "internalType": "string",
          "name": "hash",
          "type": "string"
        }
      ],
      "name": "verifySubmission",
      "outputs": [
        {
          "internalType": "bool",
          "name": "",
          "type": "bool"
        }
      ],
      "stateMutability": "view",
      "type": "function"
    }
  ],
  "bytecode": "0x608060405234801561001057600080fd5b506112e3806100206000396000f3fe608060405234801561001057600080fd5b50600436106100575760003560e01c80633e30a7441461005c578063725819031461008c5780639d4e0331146100a8578063a1f7946e146100d9578063cf43f38614610109575b600080fd5b61007660048036038101906100719190610998565b610139565b6040516100839190610a3e565b60405180910390f35b6100a660048036038101906100a19190610a59565b610333565b005b6100c260048036038101906100bd9190610b07565b610443565b6040516100d0929190610c04565b60405180910390f35b6100f360048036038101906100ee9190610c34565b610622565b6040516101009190610de8565b60405180910390f35b610123600480360381019061011e9190610c34565b610778565b6040516101309190610e0a565b60405180910390f35b6000806000808673ffffffffffffffffffffffffffffffffffffffff1673ffffffffffffffffffffffffffffffffffffffff168152602001908152602001600020846040516101889190610e61565b9081526020016040518091039020805480602002602001604051908101604052809291908181526020016000905b8282101561028457838290600052602060002090600202016040518060400160405290816000820180546101e990610ea7565b80601f016020809104026020016040519081016040528092919081815260200182805461021590610ea7565b80156102625780601f1061023757610100808354040283529160200191610262565b820191906000526020600020905b81548152906001019060200180831161024557829003601f168201915b50505050508152602001600182015481525050815260200190600101906101b6565b50505050905060005b815181101561032557836040516020016102a79190610e61565b604051602081830303815290604052805190602001208282815181106102d0576102cf610ed8565b5b6020026020010151600001516040516020016102ec9190610e61565b60405160208183030381529060405280519060200120036103125760019250505061032c565b808061031d90610f36565b91505061028d565b5060009150505b9392505050565b6000803373ffffffffffffffffffffffffffffffffffffffff1673ffffffffffffffffffffffffffffffffffffffff1681526020019081526020016000208260405161037f9190610e61565b9081526020016040518091039020604051806040016040528083815260200142815250908060018154018082558091505060019003906000526020600020906002020160009091909190915060008201518160000190816103e0919061112a565b506020820151816001015550503373ffffffffffffffffffffffffffffffffffffffff167fdd02f8d69dacd7ec8c97e9f46ee47676cd259d1ca2e814044d6f9aae0f2700d3838342604051610437939291906111fc565b60405180910390a25050565b606060008060008673ffffffffffffffffffffffffffffffffffffffff1673ffffffffffffffffffffffffffffffffffffffff168152602001908152602001600020846040516104939190610e61565b90815260200160405180910390208054905083106104e6576040517f08c379a00000000000000000000000000000000000000000000000000000000081526004016104dd9061128d565b60405180910390fd5b60008060008773ffffffffffffffffffffffffffffffffffffffff1673ffffffffffffffffffffffffffffffffffffffff168152602001908152602001600020856040516105349190610e61565b9081526020016040518091039020848154811061055457610553610ed8565b5b906000526020600020906002020160405180604001604052908160008201805461057d90610ea7565b80601f01602080910402602001604051908101604052809291908181526020018280546105a990610ea7565b80156105f65780601f106105cb576101008083540402835291602001916105f6565b820191906000526020600020905b8154815290600101906020018083116105d957829003601f168201915b505050505081526020016001820154815250509050806000015181602001519250925050935093915050565b60606000808473ffffffffffffffffffffffffffffffffffffffff1673ffffffffffffffffffffffffffffffffffffffff168152602001908152602001600020826040516106709190610e61565b9081526020016040518091039020805480602002602001604051908101604052809291908181526020016000905b8282101561076c57838290600052602060002090600202016040518060400160405290816000820180546106d190610ea7565b80601f01602080910402602001604051908101604052809291908181526020018280546106fd90610ea7565b801561074a5780601f1061071f5761010080835404028352916020019161074a565b820191906000526020600020905b81548152906001019060200180831161072d57829003601f168201915b505050505081526020016001820154815250508152602001906001019061069e565b50505050905092915050565b60008060008473ffffffffffffffffffffffffffffffffffffffff1673ffffffffffffffffffffffffffffffffffffffff168152602001908152602001600020826040516107c69190610e61565b908152602001604051809103902080549050905092915050565b6000604051905090565b600080fd5b600080fd5b600073ffffffffffffffffffffffffffffffffffffffff82169050919050565b600061081f826107f4565b9050919050565b61082f81610814565b811461083a57600080fd5b50565b60008135905061084c81610826565b92915050565b600080fd5b600080fd5b6000601f19601f8301169050919050565b7f4e487b7100000000000000000000000000000000000000000000000000000000600052604160045260246000fd5b6108a58261085c565b810181811067ffffffffffffffff821117156108c4576108c361086d565b5b80604052505050565b60006108d76107e0565b90506108e3828261089c565b919050565b600067ffffffffffffffff8211156109035761090261086d565b5b61090c8261085c565b9050602081019050919050565b82818337600083830152505050565b600061093b610936846108e8565b6108cd565b90508281526020810184848401111561095757610956610857565b5b610962848285610919565b509392505050565b600082601f83011261097f5761097e610852565b5b813561098f848260208601610928565b91505092915050565b6000806000606084860312156109b1576109b06107ea565b5b60006109bf8682870161083d565b935050602084013567ffffffffffffffff8111156109e0576109df6107ef565b5b6109ec8682870161096a565b925050604084013567ffffffffffffffff811115610a0d57610a0c6107ef565b5b610a198682870161096a565b9150509250925092565b60008115159050919050565b610a3881610a23565b82525050565b6000602082019050610a536000830184610a2f565b92915050565b60008060408385031215610a7057610a6f6107ea565b5b600083013567ffffffffffffffff811115610a8e57610a8d6107ef565b5b610a9a8582860161096a565b925050602083013567ffffffffffffffff811115610abb57610aba6107ef565b5b610ac78582860161096a565b9150509250929050565b6000819050919050565b610ae481610ad1565b8114610aef57600080fd5b50565b600081359050610b0181610adb565b92915050565b600080600060608486031215610b2057610b1f6107ea565b5b6000610b2e8682870161083d565b935050602084013567ffffffffffffffff811115610b4f57610b4e6107ef565b5b610b5b8682870161096a565b9250506040610b6c86828701610af2565b9150509250925092565b600081519050919050565b600082825260208201905092915050565b60005b83811015610bb0578082015181840152602081019050610b95565b60008484015250505050565b6000610bc782610b76565b610bd18185610b81565b9350610be1818560208601610b92565b610bea8161085c565b840191505092915050565b610bfe81610ad1565b82525050565b60006040820190508181036000830152610c1e8185610bbc565b9050610c2d6020830184610bf5565b9392505050565b60008060408385031215610c4b57610c4a6107ea565b5b6000610c598582860161083d565b925050602083013567ffffffffffffffff811115610c7a57610c796107ef565b5b610c868582860161096a565b9150509250929050565b600081519050919050565b600082825260208201905092915050565b6000819050602082019050919050565b600082825260208201905092915050565b6000610cd882610b76565b610ce28185610cbc565b9350610cf2818560208601610b92565b610cfb8161085c565b840191505092915050565b610d0f81610ad1565b82525050565b60006040830160008301518482036000860152610d328282610ccd565b9150506020830151610d476020860182610d06565b508091505092915050565b6000610d5e8383610d15565b905092915050565b6000602082019050919050565b6000610d7e82610c90565b610d888185610c9b565b935083602082028501610d9a85610cac565b8060005b85811015610dd65784840389528151610db78582610d52565b9450610dc283610d66565b925060208a01995050600181019050610d9e565b50829750879550505050505092915050565b60006020820190508181036000830152610e028184610d73565b905092915050565b6000602082019050610e1f6000830184610bf5565b92915050565b600081905092915050565b6000610e3b82610b76565b610e458185610e25565b9350610e55818560208601610b92565b80840191505092915050565b6000610e6d8284610e30565b915081905092915050565b7f4e487b7100000000000000000000000000000000000000000000000000000000600052602260045260246000fd5b60006002820490506001821680610ebf57607f821691505b602082108103610ed257610ed1610e78565b5b50919050565b7f4e487b7100000000000000000000000000000000000000000000000000000000600052603260045260246000fd5b7f4e487b7100000000000000000000000000000000000000000000000000000000600052601160045260246000fd5b6000610f4182610ad1565b91507fffffffffffffffffffffffffffffffffffffffffffffffffffffffffffffffff8203610f7357610f72610f07565b5b600182019050919050565b60008190508160005260206000209050919050565b60006020601f8301049050919050565b600082821b905092915050565b600060088302610fe07fffffffffffffffffffffffffffffffffffffffffffffffffffffffffffffffff82610fa3565b610fea8683610fa3565b95508019841693508086168417925050509392505050565b6000819050919050565b600061102761102261101d84610ad1565b611002565b610ad1565b9050919050565b6000819050919050565b6110418361100c565b61105561104d8261102e565b848454610fb0565b825550505050565b600090565b61106a61105d565b611075818484611038565b505050565b5b818110156110995761108e600082611062565b60018101905061107b565b5050565b601f8211156110de576110af81610f7e565b6110b884610f93565b810160208510156110c7578190505b6110db6110d385610f93565b83018261107a565b50505b505050565b600082821c905092915050565b6000611101600019846008026110e3565b1980831691505092915050565b600061111a83836110f0565b9150826002028217905092915050565b61113382610b76565b67ffffffffffffffff81111561114c5761114b61086d565b5b6111568254610ea7565b61116182828561109d565b600060209050601f8311600181146111945760008415611182578287015190505b61118c858261110e565b8655506111f4565b601f1984166111a286610f7e565b60005b828110156111ca578489015182556001820191506020850194506020810190506111a5565b868310156111e757848901516111e3601f8916826110f0565b8355505b6001600288020188555050505b505050505050565b600060608201905081810360008301526112168186610bbc565b9050818103602083015261122a8185610bbc565b90506112396040830184610bf5565b949350505050565b7f496e76616c696420696e64657800000000000000000000000000000000000000600082015250565b6000611277600d83610b81565b915061128282611241565b602082019050919050565b600060208201905081810360008301526112a68161126a565b905091905056fea2646970667358221220c2173d8374280501a5efa8261e2a5d047bcd99df7a1ad4f11913a167dc6e767064736f6c63430008140033",
  "linkReferences": {},
  "deployedLinkReferences": {}
}